{"abi":[{"type":"constructor","inputs":[{"name":"name","type":"string","internalType":"string"},{"name":"symbol","type":"string","internalType":"string"},{"name":"admin","type":"address","internalType":"address"},{"name":"_maxTokenSupply","type":"uint256","internalType":"uint256"}],"stateMutability":"nonpayable"},{"type":"function","name":"DEFAULT_ADMIN_ROLE","inputs":[],"outputs":[{"name":"","type":"bytes32","internalType":"bytes32"}],"stateMutability":"view"},{"type":"function","name":"MINTER_ROLE","inputs":[],"outputs":[{"name":"","type":"bytes32","internalType":"bytes32"}],"stateMutability":"view"},{"type":"function","name":"acceptDefaultAdminTransfer","inputs":[],"outputs":[],"stateMutability":"nonpayable"},{"type":"function","name":"allowance","inputs":[{"name":"owner","type":"address","internalType":"address"},{"name":"spender","type":"address","internalType":"address"}],"outputs":[{"name":"","type":"uint256","internalType":"uint256"}],"stateMutability":"view"},{"type":"function","name":"approve","inputs":[{"name":"spender","type":"address","internalType":"address"},{"name":"value","type":"uint256","internalType":"uint256"}],"outputs":[{"name":"","type":"bool","internalType":"bool"}],"stateMutability":"nonpayable"},{"type":"function","name":"balanceOf","inputs":[{"name":"account","type":"address","internalType":"address"}],"outputs":[{"name":"","type":"uint256","internalType":"uint256"}],"stateMutability":"view"},{"type":"function","name":"beginDefaultAdminTransfer","inputs":[{"name":"newAdmin","type":"address","internalType":"address"}],"outputs":[],"stateMutability":"nonpayable"},{"type":"function","name":"cancelDefaultAdminTransfer","inputs":[],"outputs":[],"stateMutability":"nonpayable"},{"type":"function","name":"changeDefaultAdminDelay","inputs":[{"name":"newDelay","type":"uint48","internalType":"uint48"}],"outputs":[],"stateMutability":"nonpayable"},{"type":"function","name":"decimals","inputs":[],"outputs":[{"name":"","type":"uint8","internalType":"uint8"}],"stateMutability":"view"},{"type":"function","name":"defaultAdmin","inputs":[],"outputs":[{"name":"","type":"address","internalType":"address"}],"stateMutability":"view"},{"type":"function","name":"defaultAdminDelay","inputs":[],"outputs":[{"name":"","type":"uint48","internalType":"uint48"}],"stateMutability":"view"},{"type":"function","name":"defaultAdminDelayIncreaseWait","inputs":[],"outputs":[{"name":"","type":"uint48","internalType":"uint48"}],"stateMutability":"view"},{"type":"function","name":"getRoleAdmin","inputs":[{"name":"role","type":"bytes32","internalType":"bytes32"}],"outputs":[{"name":"","type":"bytes32","internalType":"bytes32"}],"stateMutability":"view"},{"type":"function","name":"grantRole","inputs":[{"name":"role","type":"bytes32","internalType":"bytes32"},{"name":"account","type":"address","internalType":"address"}],"outputs":[],"stateMutability":"nonpayable"},{"type":"function","name":"hasRole","inputs":[{"name":"role","type":"bytes32","internalType":"bytes32"},{"name":"account","type":"address","internalType":"address"}],"outputs":[{"name":"","type":"bool","internalType":"bool"}],"stateMutability":"view"},{"type":"function","name":"maxSupply","inputs":[],"outputs":[{"name":"","type":"uint256","internalType":"uint256"}],"stateMutability":"view"},{"type":"function","name":"mint","inputs":[{"name":"to","type":"address","internalType":"address"},{"name":"amount","type":"uint256","internalType":"uint256"}],"outputs":[],"stateMutability":"nonpayable"},{"type":"function","name":"name","inputs":[],"outputs":[{"name":"","type":"string","internalType":"string"}],"stateMutability":"view"},{"type":"function","name":"owner","inputs":[],"outputs":[{"name":"","type":"address","internalType":"address"}],"stateMutability":"view"},{"type":"function","name":"pendingDefaultAdmin","inputs":[],"outputs":[{"name":"newAdmin","type":"address","internalType":"address"},{"name":"schedule","type":"uint48","internalType":"uint48"}],"stateMutability":"view"},{"type":"function","name":"pendingDefaultAdminDelay","inputs":[],"outputs":[{"name":"newDelay","type":"uint48","internalType":"uint48"},{"name":"schedule","type":"uint48","internalType":"uint48"}],"stateMutability":"view"},{"type":"function","name":"renounceRole","inputs":[{"name":"role","type":"bytes32","internalType":"bytes32"},{"name":"account","type":"address","internalType":"address"}],"outputs":[],"stateMutability":"nonpayable"},{"type":"function","name":"revokeRole","inputs":[{"name":"role","type":"bytes32","internalType":"bytes32"},{"name":"account","type":"address","internalType":"address"}],"outputs":[],"stateMutability":"nonpayable"},{"type":"function","name":"rollbackDefaultAdminDelay","inputs":[],"outputs":[],"stateMutability":"nonpayable"},{"type":"function","name":"supportsInterface","inputs":[{"name":"interfaceId","type":"bytes4","internalType":"bytes4"}],"outputs":[{"name":"","type":"bool","internalType":"bool"}],"stateMutability":"view"},{"type":"function","name":"symbol","inputs":[],"outputs":[{"name":"","type":"string","internalType":"string"}],"stateMutability":"view"},{"type":"function","name":"totalSupply","inputs":[],"outputs":[{"name":"","type":"uint256","internalType":"uint256"}],"stateMutability":"view"},{"type":"function","name":"transfer","inputs":[{"name":"to","type":"address","internalType":"address"},{"name":"value","type":"uint256","internalType":"uint256"}],"outputs":[{"name":"","type":"bool","internalType":"bool"}],"stateMutability":"nonpayable"},{"type":"function","name":"transferFrom","inputs":[{"name":"from","type":"address","internalType":"address"},{"name":"to","type":"address","internalType":"address"},{"name":"value","type":"uint256","internalType":"uint256"}],"outputs":[{"name":"","type":"bool","internalType":"bool"}],"stateMutability":"nonpayable"},{"type":"event","name":"Approval","inputs":[{"name":"owner","type":"address","indexed":true,"internalType":"address"},{"name":"spender","type":"address","indexed":true,"internalType":"address"},{"name":"value","type":"uint256","indexed":false,"internalType":"uint256"}],"anonymous":false},{"type":"event","name":"DefaultAdminDelayChangeCanceled","inputs":[],"anonymous":false},{"type":"event","name":"DefaultAdminDelayChangeScheduled","inputs":[{"name":"newDelay","type":"uint48","indexed":false,"internalType":"uint48"},{"name":"effectSchedule","type":"uint48","indexed":false,"internalType":"uint48"}],"anonymous":false},{"type":"event","name":"DefaultAdminTransferCanceled","inputs":[],"anonymous":false},{"type":"event","name":"DefaultAdminTransferScheduled","inputs":[{"name":"newAdmin","type":"address","indexed":true,"internalType":"address"},{"name":"acceptSchedule","type":"uint48","indexed":false,"internalType":"uint48"}],"anonymous":false},{"type":"event","name":"RoleAdminChanged","inputs":[{"name":"role","type":"bytes32","indexed":true,"internalType":"bytes32"},{"name":"previousAdminRole","type":"bytes32","indexed":true,"internalType":"bytes32"},{"name":"newAdminRole","type":"bytes32","indexed":true,"internalType":"bytes32"}],"anonymous":false},{"type":"event","name":"RoleGranted","inputs":[{"name":"role","type":"bytes32","indexed":true,"internalType":"bytes32"},{"name":"account","type":"address","indexed":true,"internalType":"address"},{"name":"sender","type":"address","indexed":true,"internalType":"address"}],"anonymous":false},{"type":"event","name":"RoleRevoked","inputs":[{"name":"role","type":"bytes32","indexed":true,"internalType":"bytes32"},{"name":"account","type":"address","indexed":true,"internalType":"address"},{"name":"sender","type":"address","indexed":true,"internalType":"address"}],"anonymous":false},{"type":"event","name":"Transfer","inputs":[{"name":"from","type":"address","indexed":true,"internalType":"address"},{"name":"to","type":"address","indexed":true,"internalType":"address"},{"name":"value","type":"uint256","indexed":false,"internalType":"uint256"}],"anonymous":false},{"type":"error","name":"AccessControlBadConfirmation","inputs":[]},{"type":"error","name":"AccessControlEnforcedDefaultAdminDelay","inputs":[{"name":"schedule","type":"uint48","internalType":"uint48"}]},{"type":"error","name":"AccessControlEnforcedDefaultAdminRules","inputs":[]},{"type":"error","name":"AccessControlInvalidDefaultAdmin","inputs":[{"name":"defaultAdmin","type":"address","internalType":"address"}]},{"type":"error","name":"AccessControlUnauthorizedAccount","inputs":[{"name":"account","type":"address","internalType":"address"},{"name":"neededRole","type":"bytes32","internalType":"bytes32"}]},{"type":"error","name":"ERC20InsufficientAllowance","inputs":[{"name":"spender","type":"address","internalType":"address"},{"name":"allowance","type":"uint256","internalType":"uint256"},{"name":"needed","type":"uint256","internalType":"uint256"}]},{"type":"error","name":"ERC20InsufficientBalance","inputs":[{"name":"sender","type":"address","internalType":"address"},{"name":"balance","type":"uint256","internalType":"uint256"},{"name":"needed","type":"uint256","internalType":"uint256"}]},{"type":"error","name":"ERC20InvalidApprover","inputs":[{"name":"approver","type":"address","internalType":"address"}]},{"type":"error","name":"ERC20InvalidReceiver","inputs":[{"name":"receiver","type":"address","internalType":"address"}]},{"type":"error","name":"ERC20InvalidSender","inputs":[{"name":"sender","type":"address","internalType":"address"}]},{"type":"error","name":"ERC20InvalidSpender","inputs":[{"name":"spender","type":"address","internalType":"address"}]},{"type":"error","name":"MaxSupplyOverminted","inputs":[]},{"type":"error","name":"SafeCastOverflowedUintDowncast","inputs":[{"name":"bits","type":"uint8","internalType":"uint8"},{"name":"value","type":"uint256","internalType":"uint256"}]}],"bytecode":{"object":"0x608060405234801561000f575f5ffd5b50604051612fbd380380612fbd83398181016040528101906100319190610578565b6203f4808285858160039081610047919061081b565b508060049081610057919061081b565b5050505f73ffffffffffffffffffffffffffffffffffffffff168173ffffffffffffffffffffffffffffffffffffffff16036100ca575f6040517fc22c80220000000000000000000000000000000000000000000000000000000081526004016100c191906108f9565b60405180910390fd5b816006601a6101000a81548165ffffffffffff021916908365ffffffffffff1602179055506101015f5f1b8261013860201b60201c565b50505061011261020d60201b60201c565b600a61011e9190610a7a565b816101299190610ac4565b60088190555050505050610b05565b5f5f5f1b83036101f5575f73ffffffffffffffffffffffffffffffffffffffff1661016761021560201b60201c565b73ffffffffffffffffffffffffffffffffffffffff16146101b4576040517f3fc3c27a00000000000000000000000000000000000000000000000000000000815260040160405180910390fd5b8160075f6101000a81548173ffffffffffffffffffffffffffffffffffffffff021916908373ffffffffffffffffffffffffffffffffffffffff1602179055505b610205838361023d60201b60201c565b905092915050565b5f6012905090565b5f60075f9054906101000a900473ffffffffffffffffffffffffffffffffffffffff16905090565b5f61024e838361033360201b60201c565b61032957600160055f8581526020019081526020015f205f015f8473ffffffffffffffffffffffffffffffffffffffff1673ffffffffffffffffffffffffffffffffffffffff1681526020019081526020015f205f6101000a81548160ff0219169083151502179055506102c661039760201b60201c565b73ffffffffffffffffffffffffffffffffffffffff168273ffffffffffffffffffffffffffffffffffffffff16847f2f8788117e7eff1d82e926ec794901d17c78024a50270940304540a733656f0d60405160405180910390a46001905061032d565b5f90505b92915050565b5f60055f8481526020019081526020015f205f015f8373ffffffffffffffffffffffffffffffffffffffff1673ffffffffffffffffffffffffffffffffffffffff1681526020019081526020015f205f9054906101000a900460ff16905092915050565b5f33905090565b5f604051905090565b5f5ffd5b5f5ffd5b5f5ffd5b5f5ffd5b5f601f19601f8301169050919050565b7f4e487b71000000000000000000000000000000000000000000000000000000005f52604160045260245ffd5b6103fd826103b7565b810181811067ffffffffffffffff8211171561041c5761041b6103c7565b5b80604052505050565b5f61042e61039e565b905061043a82826103f4565b919050565b5f67ffffffffffffffff821115610459576104586103c7565b5b610462826103b7565b9050602081019050919050565b8281835e5f83830152505050565b5f61048f61048a8461043f565b610425565b9050828152602081018484840111156104ab576104aa6103b3565b5b6104b684828561046f565b509392505050565b5f82601f8301126104d2576104d16103af565b5b81516104e284826020860161047d565b91505092915050565b5f73ffffffffffffffffffffffffffffffffffffffff82169050919050565b5f610514826104eb565b9050919050565b6105248161050a565b811461052e575f5ffd5b50565b5f8151905061053f8161051b565b92915050565b5f819050919050565b61055781610545565b8114610561575f5ffd5b50565b5f815190506105728161054e565b92915050565b5f5f5f5f608085870312156105905761058f6103a7565b5b5f85015167ffffffffffffffff8111156105ad576105ac6103ab565b5b6105b9878288016104be565b945050602085015167ffffffffffffffff8111156105da576105d96103ab565b5b6105e6878288016104be565b93505060406105f787828801610531565b925050606061060887828801610564565b91505092959194509250565b5f81519050919050565b7f4e487b71000000000000000000000000000000000000000000000000000000005f52602260045260245ffd5b5f600282049050600182168061066257607f821691505b6020821081036106755761067461061e565b5b50919050565b5f819050815f5260205f209050919050565b5f6020601f8301049050919050565b5f82821b905092915050565b5f600883026106d77fffffffffffffffffffffffffffffffffffffffffffffffffffffffffffffffff8261069c565b6106e1868361069c565b95508019841693508086168417925050509392505050565b5f819050919050565b5f61071c61071761071284610545565b6106f9565b610545565b9050919050565b5f819050919050565b61073583610702565b61074961074182610723565b8484546106a8565b825550505050565b5f5f905090565b610760610751565b61076b81848461072c565b505050565b5b8181101561078e576107835f82610758565b600181019050610771565b5050565b601f8211156107d3576107a48161067b565b6107ad8461068d565b810160208510156107bc578190505b6107d06107c88561068d565b830182610770565b50505b505050565b5f82821c905092915050565b5f6107f35f19846008026107d8565b1980831691505092915050565b5f61080b83836107e4565b9150826002028217905092915050565b61082482610614565b67ffffffffffffffff81111561083d5761083c6103c7565b5b610847825461064b565b610852828285610792565b5f60209050601f831160018114610883575f8415610871578287015190505b61087b8582610800565b8655506108e2565b601f1984166108918661067b565b5f5b828110156108b857848901518255600182019150602085019450602081019050610893565b868310156108d557848901516108d1601f8916826107e4565b8355505b6001600288020188555050505b505050505050565b6108f38161050a565b82525050565b5f60208201905061090c5f8301846108ea565b92915050565b7f4e487b71000000000000000000000000000000000000000000000000000000005f52601160045260245ffd5b5f8160011c9050919050565b5f5f8291508390505b6001851115610994578086048111156109705761096f610912565b5b600185161561097f5780820291505b808102905061098d8561093f565b9450610954565b94509492505050565b5f826109ac5760019050610a67565b816109b9575f9050610a67565b81600181146109cf57600281146109d957610a08565b6001915050610a67565b60ff8411156109eb576109ea610912565b5b8360020a915084821115610a0257610a01610912565b5b50610a67565b5060208310610133831016604e8410600b8410161715610a3d5782820a905083811115610a3857610a37610912565b5b610a67565b610a4a848484600161094b565b92509050818404811115610a6157610a60610912565b5b81810290505b9392505050565b5f60ff82169050919050565b5f610a8482610545565b9150610a8f83610a6e565b9250610abc7fffffffffffffffffffffffffffffffffffffffffffffffffffffffffffffffff848461099d565b905092915050565b5f610ace82610545565b9150610ad983610545565b9250828202610ae781610545565b91508282048414831517610afe57610afd610912565b5b5092915050565b6124ab80610b125f395ff3fe608060405234801561000f575f5ffd5b50600436106101d8575f3560e01c806384ef8ffc11610102578063cc8463c8116100a0578063d547741f1161006f578063d547741f14610536578063d5abeb0114610552578063d602b9fd14610570578063dd62ed3e1461057a576101d8565b8063cc8463c8146104d1578063cefc1429146104ef578063cf6eefb7146104f9578063d539139314610518576101d8565b806395d89b41116100dc57806395d89b4114610446578063a1eda53c14610464578063a217fddf14610483578063a9059cbb146104a1576101d8565b806384ef8ffc146103da5780638da5cb5b146103f857806391d1485414610416576101d8565b8063248a9ca31161017a57806340c10f191161014957806340c10f1914610356578063634e93da14610372578063649a5ec71461038e57806370a08231146103aa576101d8565b8063248a9ca3146102d05780632f2ff15d14610300578063313ce5671461031c57806336568abe1461033a576101d8565b8063095ea7b3116101b6578063095ea7b3146102485780630aa6220b1461027857806318160ddd1461028257806323b872dd146102a0576101d8565b806301ffc9a7146101dc578063022d63fb1461020c57806306fdde031461022a575b5f5ffd5b6101f660048036038101906101f19190611deb565b6105aa565b6040516102039190611e30565b60405180910390f35b610214610623565b6040516102219190611e69565b60405180910390f35b61023261062d565b60405161023f9190611ef2565b60405180910390f35b610262600480360381019061025d9190611f9f565b6106bd565b60405161026f9190611e30565b60405180910390f35b6102806106df565b005b61028a6106f6565b6040516102979190611fec565b60405180910390f35b6102ba60048036038101906102b59190612005565b6106ff565b6040516102c79190611e30565b60405180910390f35b6102ea60048036038101906102e59190612088565b61072d565b6040516102f791906120c2565b60405180910390f35b61031a600480360381019061031591906120db565b61074a565b005b610324610793565b6040516103319190612134565b60405180910390f35b610354600480360381019061034f91906120db565b61079b565b005b610370600480360381019061036b9190611f9f565b6108ad565b005b61038c6004803603810190610387919061214d565b6108e6565b005b6103a860048036038101906103a391906121a2565b6108ff565b005b6103c460048036038101906103bf919061214d565b610918565b6040516103d19190611fec565b60405180910390f35b6103e261095d565b6040516103ef91906121dc565b60405180910390f35b610400610985565b60405161040d91906121dc565b60405180910390f35b610430600480360381019061042b91906120db565b610993565b60405161043d9190611e30565b60405180910390f35b61044e6109f7565b60405161045b9190611ef2565b60405180910390f35b61046c610a87565b60405161047a9291906121f5565b60405180910390f35b61048b610ae5565b60405161049891906120c2565b60405180910390f35b6104bb60048036038101906104b69190611f9f565b610aeb565b6040516104c89190611e30565b60405180910390f35b6104d9610b0d565b6040516104e69190611e69565b60405180910390f35b6104f7610b7a565b005b610501610c0f565b60405161050f92919061221c565b60405180910390f35b610520610c50565b60405161052d91906120c2565b60405180910390f35b610550600480360381019061054b91906120db565b610c74565b005b61055a610cbd565b6040516105679190611fec565b60405180910390f35b610578610cc3565b005b610594600480360381019061058f9190612243565b610cda565b6040516105a19190611fec565b60405180910390f35b5f7f31498786000000000000000000000000000000000000000000000000000000007bffffffffffffffffffffffffffffffffffffffffffffffffffffffff1916827bffffffffffffffffffffffffffffffffffffffffffffffffffffffff1916148061061c575061061b82610d5c565b5b9050919050565b5f62069780905090565b60606003805461063c906122ae565b80601f0160208091040260200160405190810160405280929190818152602001828054610668906122ae565b80156106b35780601f1061068a576101008083540402835291602001916106b3565b820191905f5260205f20905b81548152906001019060200180831161069657829003601f168201915b5050505050905090565b5f5f6106c7610dd5565b90506106d4818585610ddc565b600191505092915050565b5f5f1b6106eb81610dee565b6106f3610e02565b50565b5f600254905090565b5f5f610709610dd5565b9050610716858285610e0e565b610721858585610ea1565b60019150509392505050565b5f60055f8381526020019081526020015f20600101549050919050565b5f5f1b8203610785576040517f3fc3c27a00000000000000000000000000000000000000000000000000000000815260040160405180910390fd5b61078f8282610f91565b5050565b5f6012905090565b5f5f1b821480156107de57506107af61095d565b73ffffffffffffffffffffffffffffffffffffffff168173ffffffffffffffffffffffffffffffffffffffff16145b1561089f575f5f6107ed610c0f565b915091505f73ffffffffffffffffffffffffffffffffffffffff168273ffffffffffffffffffffffffffffffffffffffff16141580610832575061083081610fb3565b155b80610843575061084181610fc7565b155b1561088557806040517f19ca5ebb00000000000000000000000000000000000000000000000000000000815260040161087c9190611e69565b60405180910390fd5b600660146101000a81549065ffffffffffff021916905550505b6108a98282610fda565b5050565b7f9f2df0fed2c77648de5860a4cc508cd0818c85b8b8a1ab4ceeef8d981c8956a66108d781610dee565b6108e18383611055565b505050565b5f5f1b6108f281610dee565b6108fb826110d4565b5050565b5f5f1b61090b81610dee565b6109148261114e565b5050565b5f5f5f8373ffffffffffffffffffffffffffffffffffffffff1673ffffffffffffffffffffffffffffffffffffffff1681526020019081526020015f20549050919050565b5f60075f9054906101000a900473ffffffffffffffffffffffffffffffffffffffff16905090565b5f61098e61095d565b905090565b5f60055f8481526020019081526020015f205f015f8373ffffffffffffffffffffffffffffffffffffffff1673ffffffffffffffffffffffffffffffffffffffff1681526020019081526020015f205f9054906101000a900460ff16905092915050565b606060048054610a06906122ae565b80601f0160208091040260200160405190810160405280929190818152602001828054610a32906122ae565b8015610a7d5780601f10610a5457610100808354040283529160200191610a7d565b820191905f5260205f20905b815481529060010190602001808311610a6057829003601f168201915b5050505050905090565b5f5f6007601a9054906101000a900465ffffffffffff169050610aa981610fb3565b8015610abb5750610ab981610fc7565b155b610ac6575f5f610add565b600760149054906101000a900465ffffffffffff16815b915091509091565b5f5f1b81565b5f5f610af5610dd5565b9050610b02818585610ea1565b600191505092915050565b5f5f6007601a9054906101000a900465ffffffffffff169050610b2f81610fb3565b8015610b405750610b3f81610fc7565b5b610b5e576006601a9054906101000a900465ffffffffffff16610b74565b600760149054906101000a900465ffffffffffff165b91505090565b5f610b83610c0f565b5090508073ffffffffffffffffffffffffffffffffffffffff16610ba5610dd5565b73ffffffffffffffffffffffffffffffffffffffff1614610c0457610bc8610dd5565b6040517fc22c8022000000000000000000000000000000000000000000000000000000008152600401610bfb91906121dc565b60405180910390fd5b610c0c6111b4565b50565b5f5f60065f9054906101000a900473ffffffffffffffffffffffffffffffffffffffff16600660149054906101000a900465ffffffffffff16915091509091565b7f9f2df0fed2c77648de5860a4cc508cd0818c85b8b8a1ab4ceeef8d981c8956a681565b5f5f1b8203610caf576040517f3fc3c27a00000000000000000000000000000000000000000000000000000000815260040160405180910390fd5b610cb9828261127f565b5050565b60085481565b5f5f1b610ccf81610dee565b610cd76112a1565b50565b5f60015f8473ffffffffffffffffffffffffffffffffffffffff1673ffffffffffffffffffffffffffffffffffffffff1681526020019081526020015f205f8373ffffffffffffffffffffffffffffffffffffffff1673ffffffffffffffffffffffffffffffffffffffff1681526020019081526020015f2054905092915050565b5f7f7965db0b000000000000000000000000000000000000000000000000000000007bffffffffffffffffffffffffffffffffffffffffffffffffffffffff1916827bffffffffffffffffffffffffffffffffffffffffffffffffffffffff19161480610dce5750610dcd826112ad565b5b9050919050565b5f33905090565b610de98383836001611316565b505050565b610dff81610dfa610dd5565b6114e5565b50565b610e0c5f5f611536565b565b5f610e198484610cda565b90507fffffffffffffffffffffffffffffffffffffffffffffffffffffffffffffffff811015610e9b5781811015610e8c578281836040517ffb8f41b2000000000000000000000000000000000000000000000000000000008152600401610e83939291906122de565b60405180910390fd5b610e9a84848484035f611316565b5b50505050565b5f73ffffffffffffffffffffffffffffffffffffffff168373ffffffffffffffffffffffffffffffffffffffff1603610f11575f6040517f96c6fd1e000000000000000000000000000000000000000000000000000000008152600401610f0891906121dc565b60405180910390fd5b5f73ffffffffffffffffffffffffffffffffffffffff168273ffffffffffffffffffffffffffffffffffffffff1603610f81575f6040517fec442f05000000000000000000000000000000000000000000000000000000008152600401610f7891906121dc565b60405180910390fd5b610f8c838383611625565b505050565b610f9a8261072d565b610fa381610dee565b610fad83836116ba565b50505050565b5f5f8265ffffffffffff1614159050919050565b5f428265ffffffffffff16109050919050565b610fe2610dd5565b73ffffffffffffffffffffffffffffffffffffffff168173ffffffffffffffffffffffffffffffffffffffff1614611046576040517f6697b23200000000000000000000000000000000000000000000000000000000815260040160405180910390fd5b6110508282611783565b505050565b5f73ffffffffffffffffffffffffffffffffffffffff168273ffffffffffffffffffffffffffffffffffffffff16036110c5575f6040517fec442f050000000000000000000000000000000000000000000000000000000081526004016110bc91906121dc565b60405180910390fd5b6110d05f8383611625565b5050565b5f6110dd610b0d565b6110e642611803565b6110f09190612340565b90506110fc828261185c565b8173ffffffffffffffffffffffffffffffffffffffff167f3377dc44241e779dd06afab5b788a35ca5f3b778836e2990bdb26a2a4b2e5ed6826040516111429190611e69565b60405180910390a25050565b5f6111588261190d565b61116142611803565b61116b9190612340565b90506111778282611536565b7ff1038c18cf84a56e432fdbfaf746924b7ea511dfe03a6506a0ceba4888788d9b82826040516111a89291906121f5565b60405180910390a15050565b5f5f6111be610c0f565b915091506111cb81610fb3565b15806111dd57506111db81610fc7565b155b1561121f57806040517f19ca5ebb0000000000000000000000000000000000000000000000000000000081526004016112169190611e69565b60405180910390fd5b6112325f5f1b61122d61095d565b611783565b5061123f5f5f1b836116ba565b5060065f6101000a81549073ffffffffffffffffffffffffffffffffffffffff0219169055600660146101000a81549065ffffffffffff02191690555050565b6112888261072d565b61129181610dee565b61129b8383611783565b50505050565b6112ab5f5f61185c565b565b5f7f01ffc9a7000000000000000000000000000000000000000000000000000000007bffffffffffffffffffffffffffffffffffffffffffffffffffffffff1916827bffffffffffffffffffffffffffffffffffffffffffffffffffffffff1916149050919050565b5f73ffffffffffffffffffffffffffffffffffffffff168473ffffffffffffffffffffffffffffffffffffffff1603611386575f6040517fe602df0500000000000000000000000000000000000000000000000000000000815260040161137d91906121dc565b60405180910390fd5b5f73ffffffffffffffffffffffffffffffffffffffff168373ffffffffffffffffffffffffffffffffffffffff16036113f6575f6040517f94280d620000000000000000000000000000000000000000000000000000000081526004016113ed91906121dc565b60405180910390fd5b8160015f8673ffffffffffffffffffffffffffffffffffffffff1673ffffffffffffffffffffffffffffffffffffffff1681526020019081526020015f205f8573ffffffffffffffffffffffffffffffffffffffff1673ffffffffffffffffffffffffffffffffffffffff1681526020019081526020015f208190555080156114df578273ffffffffffffffffffffffffffffffffffffffff168473ffffffffffffffffffffffffffffffffffffffff167f8c5be1e5ebec7d5bd14f71427d1e84f3dd0314c0f7b2291e5b200ac8c7c3b925846040516114d69190611fec565b60405180910390a35b50505050565b6114ef8282610993565b6115325780826040517fe2517d3f000000000000000000000000000000000000000000000000000000008152600401611529929190612379565b60405180910390fd5b5050565b5f6007601a9054906101000a900465ffffffffffff16905061155781610fb3565b156115d65761156581610fc7565b156115a857600760149054906101000a900465ffffffffffff166006601a6101000a81548165ffffffffffff021916908365ffffffffffff1602179055506115d5565b7f2b1fa2edafe6f7b9e97c1a9e0c3660e645beb2dcaa2d45bdbf9beaf5472e1ec560405160405180910390a15b5b82600760146101000a81548165ffffffffffff021916908365ffffffffffff160217905550816007601a6101000a81548165ffffffffffff021916908365ffffffffffff160217905550505050565b5f73ffffffffffffffffffffffffffffffffffffffff168373ffffffffffffffffffffffffffffffffffffffff161480156116735750600854816116676106f6565b61167191906123a0565b115b156116aa576040517f1644035400000000000000000000000000000000000000000000000000000000815260040160405180910390fd5b6116b583838361196b565b505050565b5f5f5f1b8303611771575f73ffffffffffffffffffffffffffffffffffffffff166116e361095d565b73ffffffffffffffffffffffffffffffffffffffff1614611730576040517f3fc3c27a00000000000000000000000000000000000000000000000000000000815260040160405180910390fd5b8160075f6101000a81548173ffffffffffffffffffffffffffffffffffffffff021916908373ffffffffffffffffffffffffffffffffffffffff1602179055505b61177b8383611b84565b905092915050565b5f5f5f1b831480156117c7575061179861095d565b73ffffffffffffffffffffffffffffffffffffffff168273ffffffffffffffffffffffffffffffffffffffff16145b156117f15760075f6101000a81549073ffffffffffffffffffffffffffffffffffffffff02191690555b6117fb8383611c6e565b905092915050565b5f65ffffffffffff8016821115611854576030826040517f6dfcc65000000000000000000000000000000000000000000000000000000000815260040161184b929190612415565b60405180910390fd5b819050919050565b5f611865610c0f565b9150508260065f6101000a81548173ffffffffffffffffffffffffffffffffffffffff021916908373ffffffffffffffffffffffffffffffffffffffff16021790555081600660146101000a81548165ffffffffffff021916908365ffffffffffff1602179055506118d681610fb3565b15611908577f8886ebfc4259abdbc16601dd8fb5678e54878f47b3c34836cfc51154a960510960405160405180910390a15b505050565b5f5f611917610b0d565b90508065ffffffffffff168365ffffffffffff161161194157828161193c919061243c565b611963565b6119628365ffffffffffff16611955610623565b65ffffffffffff16611d58565b5b915050919050565b5f73ffffffffffffffffffffffffffffffffffffffff168373ffffffffffffffffffffffffffffffffffffffff16036119bb578060025f8282546119af91906123a0565b92505081905550611a89565b5f5f5f8573ffffffffffffffffffffffffffffffffffffffff1673ffffffffffffffffffffffffffffffffffffffff1681526020019081526020015f2054905081811015611a44578381836040517fe450d38c000000000000000000000000000000000000000000000000000000008152600401611a3b939291906122de565b60405180910390fd5b8181035f5f8673ffffffffffffffffffffffffffffffffffffffff1673ffffffffffffffffffffffffffffffffffffffff1681526020019081526020015f2081905550505b5f73ffffffffffffffffffffffffffffffffffffffff168273ffffffffffffffffffffffffffffffffffffffff1603611ad0578060025f8282540392505081905550611b1a565b805f5f8473ffffffffffffffffffffffffffffffffffffffff1673ffffffffffffffffffffffffffffffffffffffff1681526020019081526020015f205f82825401925050819055505b8173ffffffffffffffffffffffffffffffffffffffff168373ffffffffffffffffffffffffffffffffffffffff167fddf252ad1be2c89b69c2b068fc378daa952ba7f163c4a11628f55a4df523b3ef83604051611b779190611fec565b60405180910390a3505050565b5f611b8f8383610993565b611c6457600160055f8581526020019081526020015f205f015f8473ffffffffffffffffffffffffffffffffffffffff1673ffffffffffffffffffffffffffffffffffffffff1681526020019081526020015f205f6101000a81548160ff021916908315150217905550611c01610dd5565b73ffffffffffffffffffffffffffffffffffffffff168273ffffffffffffffffffffffffffffffffffffffff16847f2f8788117e7eff1d82e926ec794901d17c78024a50270940304540a733656f0d60405160405180910390a460019050611c68565b5f90505b92915050565b5f611c798383610993565b15611d4e575f60055f8581526020019081526020015f205f015f8473ffffffffffffffffffffffffffffffffffffffff1673ffffffffffffffffffffffffffffffffffffffff1681526020019081526020015f205f6101000a81548160ff021916908315150217905550611ceb610dd5565b73ffffffffffffffffffffffffffffffffffffffff168273ffffffffffffffffffffffffffffffffffffffff16847ff6391f5c32d9c69d2a47ea670b442974b53935d1edc7fd64eb21e047a839171b60405160405180910390a460019050611d52565b5f90505b92915050565b5f611d668284108484611d6e565b905092915050565b5f611d7884611d87565b82841802821890509392505050565b5f8115159050919050565b5f5ffd5b5f7fffffffff0000000000000000000000000000000000000000000000000000000082169050919050565b611dca81611d96565b8114611dd4575f5ffd5b50565b5f81359050611de581611dc1565b92915050565b5f60208284031215611e0057611dff611d92565b5b5f611e0d84828501611dd7565b91505092915050565b5f8115159050919050565b611e2a81611e16565b82525050565b5f602082019050611e435f830184611e21565b92915050565b5f65ffffffffffff82169050919050565b611e6381611e49565b82525050565b5f602082019050611e7c5f830184611e5a565b92915050565b5f81519050919050565b5f82825260208201905092915050565b8281835e5f83830152505050565b5f601f19601f8301169050919050565b5f611ec482611e82565b611ece8185611e8c565b9350611ede818560208601611e9c565b611ee781611eaa565b840191505092915050565b5f6020820190508181035f830152611f0a8184611eba565b905092915050565b5f73ffffffffffffffffffffffffffffffffffffffff82169050919050565b5f611f3b82611f12565b9050919050565b611f4b81611f31565b8114611f55575f5ffd5b50565b5f81359050611f6681611f42565b92915050565b5f819050919050565b611f7e81611f6c565b8114611f88575f5ffd5b50565b5f81359050611f9981611f75565b92915050565b5f5f60408385031215611fb557611fb4611d92565b5b5f611fc285828601611f58565b9250506020611fd385828601611f8b565b9150509250929050565b611fe681611f6c565b82525050565b5f602082019050611fff5f830184611fdd565b92915050565b5f5f5f6060848603121561201c5761201b611d92565b5b5f61202986828701611f58565b935050602061203a86828701611f58565b925050604061204b86828701611f8b565b9150509250925092565b5f819050919050565b61206781612055565b8114612071575f5ffd5b50565b5f813590506120828161205e565b92915050565b5f6020828403121561209d5761209c611d92565b5b5f6120aa84828501612074565b91505092915050565b6120bc81612055565b82525050565b5f6020820190506120d55f8301846120b3565b92915050565b5f5f604083850312156120f1576120f0611d92565b5b5f6120fe85828601612074565b925050602061210f85828601611f58565b9150509250929050565b5f60ff82169050919050565b61212e81612119565b82525050565b5f6020820190506121475f830184612125565b92915050565b5f6020828403121561216257612161611d92565b5b5f61216f84828501611f58565b91505092915050565b61218181611e49565b811461218b575f5ffd5b50565b5f8135905061219c81612178565b92915050565b5f602082840312156121b7576121b6611d92565b5b5f6121c48482850161218e565b91505092915050565b6121d681611f31565b82525050565b5f6020820190506121ef5f8301846121cd565b92915050565b5f6040820190506122085f830185611e5a565b6122156020830184611e5a565b9392505050565b5f60408201905061222f5f8301856121cd565b61223c6020830184611e5a565b9392505050565b5f5f6040838503121561225957612258611d92565b5b5f61226685828601611f58565b925050602061227785828601611f58565b9150509250929050565b7f4e487b71000000000000000000000000000000000000000000000000000000005f52602260045260245ffd5b5f60028204905060018216806122c557607f821691505b6020821081036122d8576122d7612281565b5b50919050565b5f6060820190506122f15f8301866121cd565b6122fe6020830185611fdd565b61230b6040830184611fdd565b949350505050565b7f4e487b71000000000000000000000000000000000000000000000000000000005f52601160045260245ffd5b5f61234a82611e49565b915061235583611e49565b9250828201905065ffffffffffff81111561237357612372612313565b5b92915050565b5f60408201905061238c5f8301856121cd565b61239960208301846120b3565b9392505050565b5f6123aa82611f6c565b91506123b583611f6c565b92508282019050808211156123cd576123cc612313565b5b92915050565b5f819050919050565b5f819050919050565b5f6123ff6123fa6123f5846123d3565b6123dc565b612119565b9050919050565b61240f816123e5565b82525050565b5f6040820190506124285f830185612406565b6124356020830184611fdd565b9392505050565b5f61244682611e49565b915061245183611e49565b9250828203905065ffffffffffff81111561246f5761246e612313565b5b9291505056fea2646970667358221220b55bf5ee8faf23b852f17aa99d00ef6e229ca20e9da34015f797744d5c66756b64736f6c634300081e0033","linkReferences":{}},"methodIdentifiers":{"DEFAULT_ADMIN_ROLE()":"a217fddf","MINTER_ROLE()":"d5391393","acceptDefaultAdminTransfer()":"cefc1429","allowance(address,address)":"dd62ed3e","approve(address,uint256)":"095ea7b3","balanceOf(address)":"70a08231","beginDefaultAdminTransfer(address)":"634e93da","cancelDefaultAdminTransfer()":"d602b9fd","changeDefaultAdminDelay(uint48)":"649a5ec7","decimals()":"313ce567","defaultAdmin()":"84ef8ffc","defaultAdminDelay()":"cc8463c8","defaultAdminDelayIncreaseWait()":"022d63fb","getRoleAdmin(bytes32)":"248a9ca3","grantRole(bytes32,address)":"2f2ff15d","hasRole(bytes32,address)":"91d14854","maxSupply()":"d5abeb01","mint(address,uint256)":"40c10f19","name()":"06fdde03","owner()":"8da5cb5b","pendingDefaultAdmin()":"cf6eefb7","pendingDefaultAdminDelay()":"a1eda53c","renounceRole(bytes32,address)":"36568abe","revokeRole(bytes32,address)":"d547741f","rollbackDefaultAdminDelay()":"0aa6220b","supportsInterface(bytes4)":"01ffc9a7","symbol()":"95d89b41","totalSupply()":"18160ddd","transfer(address,uint256)":"a9059cbb","transferFrom(address,address,uint256)":"23b872dd"},"id":40}