{"abi":[{"type":"constructor","inputs":[{"name":"_cappedToken","type":"address","internalType":"address"},{"name":"_owner","type":"address","internalType":"address"},{"name":"_sellPrice","type":"uint256","internalType":"uint256"},{"name":"_buyBackPrice","type":"uint256","internalType":"uint256"}],"stateMutability":"nonpayable"},{"type":"function","name":"acceptOwnership","inputs":[],"outputs":[],"stateMutability":"nonpayable"},{"type":"function","name":"accounts","inputs":[{"name":"","type":"address","internalType":"address"}],"outputs":[{"name":"","type":"uint256","internalType":"uint256"}],"stateMutability":"view"},{"type":"function","name":"buy","inputs":[],"outputs":[],"stateMutability":"payable"},{"type":"function","name":"buyBackPrice","inputs":[],"outputs":[{"name":"","type":"uint256","internalType":"uint256"}],"stateMutability":"view"},{"type":"function","name":"cappedToken","inputs":[],"outputs":[{"name":"","type":"address","internalType":"contract CappedToken"}],"stateMutability":"view"},{"type":"function","name":"minimumPurchase","inputs":[],"outputs":[{"name":"","type":"uint256","internalType":"uint256"}],"stateMutability":"view"},{"type":"function","name":"owner","inputs":[],"outputs":[{"name":"","type":"address","internalType":"address"}],"stateMutability":"view"},{"type":"function","name":"pendingOwner","inputs":[],"outputs":[{"name":"","type":"address","internalType":"address"}],"stateMutability":"view"},{"type":"function","name":"renounceOwnership","inputs":[],"outputs":[],"stateMutability":"nonpayable"},{"type":"function","name":"sell","inputs":[{"name":"tokensToSell","type":"uint256","internalType":"uint256"}],"outputs":[],"stateMutability":"nonpayable"},{"type":"function","name":"sellPrice","inputs":[],"outputs":[{"name":"","type":"uint256","internalType":"uint256"}],"stateMutability":"view"},{"type":"function","name":"setBuyBackPrice","inputs":[{"name":"_buyBackPrice","type":"uint256","internalType":"uint256"}],"outputs":[],"stateMutability":"nonpayable"},{"type":"function","name":"setSellPrice","inputs":[{"name":"_sellPrice","type":"uint256","internalType":"uint256"}],"outputs":[],"stateMutability":"nonpayable"},{"type":"function","name":"tokensInReserve","inputs":[],"outputs":[{"name":"","type":"uint256","internalType":"uint256"}],"stateMutability":"view"},{"type":"function","name":"transferOwnership","inputs":[{"name":"newOwner","type":"address","internalType":"address"}],"outputs":[],"stateMutability":"nonpayable"},{"type":"function","name":"withdrawFunds","inputs":[],"outputs":[],"stateMutability":"nonpayable"},{"type":"function","name":"withdrawTokens","inputs":[],"outputs":[],"stateMutability":"nonpayable"},{"type":"event","name":"BuyMint","inputs":[{"name":"from","type":"address","indexed":true,"internalType":"address"},{"name":"to","type":"address","indexed":true,"internalType":"address"},{"name":"tokensToMint","type":"uint256","indexed":false,"internalType":"uint256"}],"anonymous":false},{"type":"event","name":"BuyTransfer","inputs":[{"name":"from","type":"address","indexed":true,"internalType":"address"},{"name":"to","type":"address","indexed":true,"internalType":"address"},{"name":"tokensToTransfer","type":"uint256","indexed":false,"internalType":"uint256"}],"anonymous":false},{"type":"event","name":"OwnershipTransferStarted","inputs":[{"name":"previousOwner","type":"address","indexed":true,"internalType":"address"},{"name":"newOwner","type":"address","indexed":true,"internalType":"address"}],"anonymous":false},{"type":"event","name":"OwnershipTransferred","inputs":[{"name":"previousOwner","type":"address","indexed":true,"internalType":"address"},{"name":"newOwner","type":"address","indexed":true,"internalType":"address"}],"anonymous":false},{"type":"event","name":"Sell","inputs":[{"name":"seller","type":"address","indexed":true,"internalType":"address"},{"name":"tokensIn","type":"uint256","indexed":false,"internalType":"uint256"},{"name":"ethOut","type":"uint256","indexed":false,"internalType":"uint256"}],"anonymous":false},{"type":"error","name":"NotEnoughFunds","inputs":[]},{"type":"error","name":"OwnableInvalidOwner","inputs":[{"name":"owner","type":"address","internalType":"address"}]},{"type":"error","name":"OwnableUnauthorizedAccount","inputs":[{"name":"account","type":"address","internalType":"address"}]},{"type":"error","name":"PurchaseTooSmall","inputs":[]},{"type":"error","name":"SellTransferFailed","inputs":[]},{"type":"error","name":"WithdrawFundsFailed","inputs":[]}],"bytecode":{"object":"0x608060405234801561000f575f5ffd5b5060405161193e38038061193e83398181016040528101906100319190610291565b825f73ffffffffffffffffffffffffffffffffffffffff168173ffffffffffffffffffffffffffffffffffffffff16036100a2575f6040517f1e4fbdf70000000000000000000000000000000000000000000000000000000081526004016100999190610304565b60405180910390fd5b6100b18161010960201b60201c565b508360025f6101000a81548173ffffffffffffffffffffffffffffffffffffffff021916908373ffffffffffffffffffffffffffffffffffffffff16021790555081600381905550806004819055505050505061031d565b60015f6101000a81549073ffffffffffffffffffffffffffffffffffffffff021916905561013c8161013f60201b60201c565b50565b5f5f5f9054906101000a900473ffffffffffffffffffffffffffffffffffffffff169050815f5f6101000a81548173ffffffffffffffffffffffffffffffffffffffff021916908373ffffffffffffffffffffffffffffffffffffffff1602179055508173ffffffffffffffffffffffffffffffffffffffff168173ffffffffffffffffffffffffffffffffffffffff167f8be0079c531659141344cd1fd0a4f28419497f9722a3daafe3b4186f6b6457e060405160405180910390a35050565b5f5ffd5b5f73ffffffffffffffffffffffffffffffffffffffff82169050919050565b5f61022d82610204565b9050919050565b61023d81610223565b8114610247575f5ffd5b50565b5f8151905061025881610234565b92915050565b5f819050919050565b6102708161025e565b811461027a575f5ffd5b50565b5f8151905061028b81610267565b92915050565b5f5f5f5f608085870312156102a9576102a8610200565b5b5f6102b68782880161024a565b94505060206102c78782880161024a565b93505060406102d88782880161027d565b92505060606102e98782880161027d565b91505092959194509250565b6102fe81610223565b82525050565b5f6020820190506103175f8301846102f5565b92915050565b6116148061032a5f395ff3fe6080604052600436106100fd575f3560e01c80638da5cb5b11610094578063e23000a011610063578063e23000a014610299578063e30c3978146102c3578063e4849b32146102ed578063f2fde38b14610315578063fc6634b91461033d576100fd565b80638da5cb5b14610211578063a6f2ae3a1461023b578063a794609d14610245578063aa2de6c31461026f576100fd565b8063715018a6116100d0578063715018a6146101a757806379ba5097146101bd5780638b008f0f146101d35780638d8f2adb146101fb576100fd565b806324600fc3146101015780634b7503341461011757806359bb67a1146101415780635e5c06e21461016b575b5f5ffd5b34801561010c575f5ffd5b50610115610365565b005b348015610122575f5ffd5b5061012b610416565b6040516101389190611005565b60405180910390f35b34801561014c575f5ffd5b5061015561041c565b6040516101629190611005565b60405180910390f35b348015610176575f5ffd5b50610191600480360381019061018c919061107c565b610422565b60405161019e9190611005565b60405180910390f35b3480156101b2575f5ffd5b506101bb610437565b005b3480156101c8575f5ffd5b506101d161044a565b005b3480156101de575f5ffd5b506101f960048036038101906101f491906110d1565b6104d8565b005b348015610206575f5ffd5b5061020f6104ea565b005b34801561021c575f5ffd5b506102256105a6565b604051610232919061110b565b60405180910390f35b6102436105cd565b005b348015610250575f5ffd5b506102596105d7565b604051610266919061117f565b60405180910390f35b34801561027a575f5ffd5b506102836105fc565b6040516102909190611005565b60405180910390f35b3480156102a4575f5ffd5b506102ad610602565b6040516102ba9190611005565b60405180910390f35b3480156102ce575f5ffd5b506102d7610608565b6040516102e4919061110b565b60405180910390f35b3480156102f8575f5ffd5b50610313600480360381019061030e91906110d1565b610630565b005b348015610320575f5ffd5b5061033b6004803603810190610336919061107c565b610a19565b005b348015610348575f5ffd5b50610363600480360381019061035e91906110d1565b610ac5565b005b61036d610ad7565b5f6103766105a6565b73ffffffffffffffffffffffffffffffffffffffff1647604051610399906111c5565b5f6040518083038185875af1925050503d805f81146103d3576040519150601f19603f3d011682016040523d82523d5f602084013e6103d8565b606091505b5050905080610413576040517f4c0f503e00000000000000000000000000000000000000000000000000000000815260040160405180910390fd5b50565b60035481565b60065481565b6007602052805f5260405f205f915090505481565b61043f610ad7565b6104485f610b5e565b565b5f610453610b8e565b90508073ffffffffffffffffffffffffffffffffffffffff16610474610608565b73ffffffffffffffffffffffffffffffffffffffff16146104cc57806040517f118cdaa70000000000000000000000000000000000000000000000000000000081526004016104c3919061110b565b60405180910390fd5b6104d581610b5e565b50565b6104e0610ad7565b8060048190555050565b6104f2610ad7565b5f60065490505f60068190555060025f9054906101000a900473ffffffffffffffffffffffffffffffffffffffff1673ffffffffffffffffffffffffffffffffffffffff1663a9059cbb6105446105a6565b836040518363ffffffff1660e01b81526004016105629291906111d9565b6020604051808303815f875af115801561057e573d5f5f3e3d5ffd5b505050506040513d601f19601f820116820180604052508101906105a29190611235565b5050565b5f5f5f9054906101000a900473ffffffffffffffffffffffffffffffffffffffff16905090565b6105d5610b95565b565b60025f9054906101000a900473ffffffffffffffffffffffffffffffffffffffff1681565b60055481565b60045481565b5f60015f9054906101000a900473ffffffffffffffffffffffffffffffffffffffff16905090565b5f8103610669576040517f91e88d6100000000000000000000000000000000000000000000000000000000815260040160405180910390fd5b5f60025f9054906101000a900473ffffffffffffffffffffffffffffffffffffffff1673ffffffffffffffffffffffffffffffffffffffff1663313ce5676040518163ffffffff1660e01b8152600401602060405180830381865afa1580156106d4573d5f5f3e3d5ffd5b505050506040513d601f19601f820116820180604052508101906106f89190611296565b60ff16600a610707919061141d565b90505f81600454846107199190611467565b61072391906114d5565b90505f810361075e576040517f91e88d6100000000000000000000000000000000000000000000000000000000815260040160405180910390fd5b80471015610798576040517f81b5ad6800000000000000000000000000000000000000000000000000000000815260040160405180910390fd5b60025f9054906101000a900473ffffffffffffffffffffffffffffffffffffffff1673ffffffffffffffffffffffffffffffffffffffff166323b872dd3330866040518463ffffffff1660e01b81526004016107f693929190611505565b6020604051808303815f875af1158015610812573d5f5f3e3d5ffd5b505050506040513d601f19601f820116820180604052508101906108369190611235565b508260065f828254610848919061153a565b925050819055505f60075f3373ffffffffffffffffffffffffffffffffffffffff1673ffffffffffffffffffffffffffffffffffffffff1681526020019081526020015f205490508381106108e05783810360075f3373ffffffffffffffffffffffffffffffffffffffff1673ffffffffffffffffffffffffffffffffffffffff1681526020019081526020015f2081905550610923565b5f60075f3373ffffffffffffffffffffffffffffffffffffffff1673ffffffffffffffffffffffffffffffffffffffff1681526020019081526020015f20819055505b5f3373ffffffffffffffffffffffffffffffffffffffff1683604051610948906111c5565b5f6040518083038185875af1925050503d805f8114610982576040519150601f19603f3d011682016040523d82523d5f602084013e610987565b606091505b50509050806109c2576040517fcbc023fa00000000000000000000000000000000000000000000000000000000815260040160405180910390fd5b3373ffffffffffffffffffffffffffffffffffffffff167fed7a144fad14804d5c249145e3e0e2b63a9eb455b76aee5bc92d711e9bba3e4a8685604051610a0a92919061156d565b60405180910390a25050505050565b610a21610ad7565b8060015f6101000a81548173ffffffffffffffffffffffffffffffffffffffff021916908373ffffffffffffffffffffffffffffffffffffffff1602179055508073ffffffffffffffffffffffffffffffffffffffff16610a806105a6565b73ffffffffffffffffffffffffffffffffffffffff167f38d16b8cac22d99fc7c124b9cd0de2d3fa1faef420bfe791d8c362d765e2270060405160405180910390a350565b610acd610ad7565b8060038190555050565b610adf610b8e565b73ffffffffffffffffffffffffffffffffffffffff16610afd6105a6565b73ffffffffffffffffffffffffffffffffffffffff1614610b5c57610b20610b8e565b6040517f118cdaa7000000000000000000000000000000000000000000000000000000008152600401610b53919061110b565b60405180910390fd5b565b60015f6101000a81549073ffffffffffffffffffffffffffffffffffffffff0219169055610b8b81610f2c565b50565b5f33905090565b5f60035460025f9054906101000a900473ffffffffffffffffffffffffffffffffffffffff1673ffffffffffffffffffffffffffffffffffffffff1663313ce5676040518163ffffffff1660e01b8152600401602060405180830381865afa158015610c03573d5f5f3e3d5ffd5b505050506040513d601f19601f82011682018060405250810190610c279190611296565b600a610c339190611594565b34610c3e9190611467565b610c4891906114d5565b90505f8103610c83576040517f91e88d6100000000000000000000000000000000000000000000000000000000815260040160405180910390fd5b8060075f3373ffffffffffffffffffffffffffffffffffffffff1673ffffffffffffffffffffffffffffffffffffffff1681526020019081526020015f205f828254610ccf919061153a565b925050819055505f5f8260065410610cf8578260065f8282540392505081905550829050610d25565b5f60065410158015610d0b575082600654105b15610d24576006548303915060065490505f6006819055505b5b5f821115610e1c5760025f9054906101000a900473ffffffffffffffffffffffffffffffffffffffff1673ffffffffffffffffffffffffffffffffffffffff166340c10f1933846040518363ffffffff1660e01b8152600401610d899291906111d9565b5f604051808303815f87803b158015610da0575f5ffd5b505af1158015610db2573d5f5f3e3d5ffd5b505050503373ffffffffffffffffffffffffffffffffffffffff165f73ffffffffffffffffffffffffffffffffffffffff167fab1fbcdce844dfb274cb826d3998794f24d4c87e2ba5f1d416a5506549d75cd284604051610e139190611005565b60405180910390a35b5f811115610f275760025f9054906101000a900473ffffffffffffffffffffffffffffffffffffffff1673ffffffffffffffffffffffffffffffffffffffff1663a9059cbb33836040518363ffffffff1660e01b8152600401610e809291906111d9565b6020604051808303815f875af1158015610e9c573d5f5f3e3d5ffd5b505050506040513d601f19601f82011682018060405250810190610ec09190611235565b503373ffffffffffffffffffffffffffffffffffffffff163073ffffffffffffffffffffffffffffffffffffffff167f50e12ba8784d63667e4b4b93f51895371e905014ccff7b6e3a9d20b64123d97983604051610f1e9190611005565b60405180910390a35b505050565b5f5f5f9054906101000a900473ffffffffffffffffffffffffffffffffffffffff169050815f5f6101000a81548173ffffffffffffffffffffffffffffffffffffffff021916908373ffffffffffffffffffffffffffffffffffffffff1602179055508173ffffffffffffffffffffffffffffffffffffffff168173ffffffffffffffffffffffffffffffffffffffff167f8be0079c531659141344cd1fd0a4f28419497f9722a3daafe3b4186f6b6457e060405160405180910390a35050565b5f819050919050565b610fff81610fed565b82525050565b5f6020820190506110185f830184610ff6565b92915050565b5f5ffd5b5f73ffffffffffffffffffffffffffffffffffffffff82169050919050565b5f61104b82611022565b9050919050565b61105b81611041565b8114611065575f5ffd5b50565b5f8135905061107681611052565b92915050565b5f602082840312156110915761109061101e565b5b5f61109e84828501611068565b91505092915050565b6110b081610fed565b81146110ba575f5ffd5b50565b5f813590506110cb816110a7565b92915050565b5f602082840312156110e6576110e561101e565b5b5f6110f3848285016110bd565b91505092915050565b61110581611041565b82525050565b5f60208201905061111e5f8301846110fc565b92915050565b5f819050919050565b5f61114761114261113d84611022565b611124565b611022565b9050919050565b5f6111588261112d565b9050919050565b5f6111698261114e565b9050919050565b6111798161115f565b82525050565b5f6020820190506111925f830184611170565b92915050565b5f81905092915050565b50565b5f6111b05f83611198565b91506111bb826111a2565b5f82019050919050565b5f6111cf826111a5565b9150819050919050565b5f6040820190506111ec5f8301856110fc565b6111f96020830184610ff6565b9392505050565b5f8115159050919050565b61121481611200565b811461121e575f5ffd5b50565b5f8151905061122f8161120b565b92915050565b5f6020828403121561124a5761124961101e565b5b5f61125784828501611221565b91505092915050565b5f60ff82169050919050565b61127581611260565b811461127f575f5ffd5b50565b5f815190506112908161126c565b92915050565b5f602082840312156112ab576112aa61101e565b5b5f6112b884828501611282565b91505092915050565b7f4e487b71000000000000000000000000000000000000000000000000000000005f52601160045260245ffd5b5f8160011c9050919050565b5f5f8291508390505b60018511156113435780860481111561131f5761131e6112c1565b5b600185161561132e5780820291505b808102905061133c856112ee565b9450611303565b94509492505050565b5f8261135b5760019050611416565b81611368575f9050611416565b816001811461137e5760028114611388576113b7565b6001915050611416565b60ff84111561139a576113996112c1565b5b8360020a9150848211156113b1576113b06112c1565b5b50611416565b5060208310610133831016604e8410600b84101617156113ec5782820a9050838111156113e7576113e66112c1565b5b611416565b6113f984848460016112fa565b925090508184048111156114105761140f6112c1565b5b81810290505b9392505050565b5f61142782610fed565b915061143283610fed565b925061145f7fffffffffffffffffffffffffffffffffffffffffffffffffffffffffffffffff848461134c565b905092915050565b5f61147182610fed565b915061147c83610fed565b925082820261148a81610fed565b915082820484148315176114a1576114a06112c1565b5b5092915050565b7f4e487b71000000000000000000000000000000000000000000000000000000005f52601260045260245ffd5b5f6114df82610fed565b91506114ea83610fed565b9250826114fa576114f96114a8565b5b828204905092915050565b5f6060820190506115185f8301866110fc565b61152560208301856110fc565b6115326040830184610ff6565b949350505050565b5f61154482610fed565b915061154f83610fed565b9250828201905080821115611567576115666112c1565b5b92915050565b5f6040820190506115805f830185610ff6565b61158d6020830184610ff6565b9392505050565b5f61159e82610fed565b91506115a983611260565b92506115d67fffffffffffffffffffffffffffffffffffffffffffffffffffffffffffffffff848461134c565b90509291505056fea26469706673582212203c417c8ad547e37aad6f9475772cad2310aa8b5690931d0443ff6717a20e3bd364736f6c634300081e0033","linkReferences":{}},"methodIdentifiers":{"acceptOwnership()":"79ba5097","accounts(address)":"5e5c06e2","buy()":"a6f2ae3a","buyBackPrice()":"e23000a0","cappedToken()":"a794609d","minimumPurchase()":"aa2de6c3","owner()":"8da5cb5b","pendingOwner()":"e30c3978","renounceOwnership()":"715018a6","sell(uint256)":"e4849b32","sellPrice()":"4b750334","setBuyBackPrice(uint256)":"8b008f0f","setSellPrice(uint256)":"fc6634b9","tokensInReserve()":"59bb67a1","transferOwnership(address)":"f2fde38b","withdrawFunds()":"24600fc3","withdrawTokens()":"8d8f2adb"},"id":41}